{
  "contractName": "Minter",
  "abi": [
    {
      "inputs": [],
      "stateMutability": "nonpayable",
      "type": "constructor"
    },
    {
      "anonymous": false,
      "inputs": [
        {
          "indexed": true,
          "internalType": "address",
          "name": "owner",
          "type": "address"
        },
        {
          "indexed": true,
          "internalType": "address",
          "name": "approved",
          "type": "address"
        },
        {
          "indexed": true,
          "internalType": "uint256",
          "name": "tokenId",
          "type": "uint256"
        }
      ],
      "name": "Approval",
      "type": "event"
    },
    {
      "anonymous": false,
      "inputs": [
        {
          "indexed": true,
          "internalType": "address",
          "name": "owner",
          "type": "address"
        },
        {
          "indexed": true,
          "internalType": "address",
          "name": "operator",
          "type": "address"
        },
        {
          "indexed": false,
          "internalType": "bool",
          "name": "approved",
          "type": "bool"
        }
      ],
      "name": "ApprovalForAll",
      "type": "event"
    },
    {
      "anonymous": false,
      "inputs": [
        {
          "indexed": true,
          "internalType": "address",
          "name": "from",
          "type": "address"
        },
        {
          "indexed": true,
          "internalType": "address",
          "name": "to",
          "type": "address"
        },
        {
          "indexed": true,
          "internalType": "uint256",
          "name": "tokenId",
          "type": "uint256"
        }
      ],
      "name": "Transfer",
      "type": "event"
    },
    {
      "inputs": [
        {
          "internalType": "address",
          "name": "to",
          "type": "address"
        },
        {
          "internalType": "uint256",
          "name": "tokenId",
          "type": "uint256"
        }
      ],
      "name": "approve",
      "outputs": [],
      "stateMutability": "nonpayable",
      "type": "function"
    },
    {
      "inputs": [
        {
          "internalType": "address",
          "name": "owner",
          "type": "address"
        }
      ],
      "name": "balanceOf",
      "outputs": [
        {
          "internalType": "uint256",
          "name": "",
          "type": "uint256"
        }
      ],
      "stateMutability": "view",
      "type": "function"
    },
    {
      "inputs": [
        {
          "internalType": "uint256",
          "name": "tokenId",
          "type": "uint256"
        }
      ],
      "name": "getApproved",
      "outputs": [
        {
          "internalType": "address",
          "name": "",
          "type": "address"
        }
      ],
      "stateMutability": "view",
      "type": "function"
    },
    {
      "inputs": [
        {
          "internalType": "address",
          "name": "owner",
          "type": "address"
        },
        {
          "internalType": "address",
          "name": "operator",
          "type": "address"
        }
      ],
      "name": "isApprovedForAll",
      "outputs": [
        {
          "internalType": "bool",
          "name": "",
          "type": "bool"
        }
      ],
      "stateMutability": "view",
      "type": "function"
    },
    {
      "inputs": [],
      "name": "mintPrice",
      "outputs": [
        {
          "internalType": "uint256",
          "name": "",
          "type": "uint256"
        }
      ],
      "stateMutability": "view",
      "type": "function"
    },
    {
      "inputs": [],
      "name": "name",
      "outputs": [
        {
          "internalType": "string",
          "name": "",
          "type": "string"
        }
      ],
      "stateMutability": "view",
      "type": "function"
    },
    {
      "inputs": [
        {
          "internalType": "uint256",
          "name": "tokenId",
          "type": "uint256"
        }
      ],
      "name": "ownerOf",
      "outputs": [
        {
          "internalType": "address",
          "name": "",
          "type": "address"
        }
      ],
      "stateMutability": "view",
      "type": "function"
    },
    {
      "inputs": [
        {
          "internalType": "address",
          "name": "from",
          "type": "address"
        },
        {
          "internalType": "address",
          "name": "to",
          "type": "address"
        },
        {
          "internalType": "uint256",
          "name": "tokenId",
          "type": "uint256"
        }
      ],
      "name": "safeTransferFrom",
      "outputs": [],
      "stateMutability": "nonpayable",
      "type": "function"
    },
    {
      "inputs": [
        {
          "internalType": "address",
          "name": "from",
          "type": "address"
        },
        {
          "internalType": "address",
          "name": "to",
          "type": "address"
        },
        {
          "internalType": "uint256",
          "name": "tokenId",
          "type": "uint256"
        },
        {
          "internalType": "bytes",
          "name": "_data",
          "type": "bytes"
        }
      ],
      "name": "safeTransferFrom",
      "outputs": [],
      "stateMutability": "nonpayable",
      "type": "function"
    },
    {
      "inputs": [
        {
          "internalType": "address",
          "name": "operator",
          "type": "address"
        },
        {
          "internalType": "bool",
          "name": "approved",
          "type": "bool"
        }
      ],
      "name": "setApprovalForAll",
      "outputs": [],
      "stateMutability": "nonpayable",
      "type": "function"
    },
    {
      "inputs": [],
      "name": "symbol",
      "outputs": [
        {
          "internalType": "string",
          "name": "",
          "type": "string"
        }
      ],
      "stateMutability": "view",
      "type": "function"
    },
    {
      "inputs": [
        {
          "internalType": "uint256",
          "name": "index",
          "type": "uint256"
        }
      ],
      "name": "tokenByIndex",
      "outputs": [
        {
          "internalType": "uint256",
          "name": "",
          "type": "uint256"
        }
      ],
      "stateMutability": "view",
      "type": "function"
    },
    {
      "inputs": [
        {
          "internalType": "address",
          "name": "owner",
          "type": "address"
        },
        {
          "internalType": "uint256",
          "name": "index",
          "type": "uint256"
        }
      ],
      "name": "tokenOfOwnerByIndex",
      "outputs": [
        {
          "internalType": "uint256",
          "name": "",
          "type": "uint256"
        }
      ],
      "stateMutability": "view",
      "type": "function"
    },
    {
      "inputs": [],
      "name": "totalSupply",
      "outputs": [
        {
          "internalType": "uint256",
          "name": "",
          "type": "uint256"
        }
      ],
      "stateMutability": "view",
      "type": "function"
    },
    {
      "inputs": [
        {
          "internalType": "address",
          "name": "from",
          "type": "address"
        },
        {
          "internalType": "address",
          "name": "to",
          "type": "address"
        },
        {
          "internalType": "uint256",
          "name": "tokenId",
          "type": "uint256"
        }
      ],
      "name": "transferFrom",
      "outputs": [],
      "stateMutability": "nonpayable",
      "type": "function"
    },
    {
      "inputs": [
        {
          "internalType": "uint256",
          "name": "tokenId",
          "type": "uint256"
        }
      ],
      "name": "tokenURI",
      "outputs": [
        {
          "internalType": "string",
          "name": "",
          "type": "string"
        }
      ],
      "stateMutability": "view",
      "type": "function"
    },
    {
      "inputs": [
        {
          "internalType": "bytes4",
          "name": "interfaceId",
          "type": "bytes4"
        }
      ],
      "name": "supportsInterface",
      "outputs": [
        {
          "internalType": "bool",
          "name": "",
          "type": "bool"
        }
      ],
      "stateMutability": "view",
      "type": "function"
    },
    {
      "inputs": [
        {
          "internalType": "string",
          "name": "_uri",
          "type": "string"
        }
      ],
      "name": "mint",
      "outputs": [],
      "stateMutability": "payable",
      "type": "function"
    }
  ],
  "bytecode": "0x60806040523480156200001157600080fd5b506040518060400160405280600881526020017f59544d696e7465720000000000000000000000000000000000000000000000008152506040518060400160405280600381526020017f59544d0000000000000000000000000000000000000000000000000000000000815250816000908051906020019062000096929190620000b8565b508060019080519060200190620000af929190620000b8565b505050620001cd565b828054620000c69062000197565b90600052602060002090601f016020900481019282620000ea576000855562000136565b82601f106200010557805160ff191683800117855562000136565b8280016001018555821562000136579182015b828111156200013557825182559160200191906001019062000118565b5b50905062000145919062000149565b5090565b5b80821115620001645760008160009055506001016200014a565b5090565b7f4e487b7100000000000000000000000000000000000000000000000000000000600052602260045260246000fd5b60006002820490506001821680620001b057607f821691505b60208210811415620001c757620001c662000168565b5b50919050565b6134b780620001dd6000396000f3fe6080604052600436106101095760003560e01c80636352211e11610095578063a22cb46511610064578063a22cb465146103a3578063b88d4fde146103cc578063c87b56dd146103f5578063d85d3d2714610432578063e985e9c51461044e57610109565b80636352211e146102d35780636817c76c1461031057806370a082311461033b57806395d89b411461037857610109565b806318160ddd116100dc57806318160ddd146101dc57806323b872dd146102075780632f745c591461023057806342842e0e1461026d5780634f6ccce71461029657610109565b806301ffc9a71461010e57806306fdde031461014b578063081812fc14610176578063095ea7b3146101b3575b600080fd5b34801561011a57600080fd5b50610135600480360381019061013091906120d9565b61048b565b6040516101429190612121565b60405180910390f35b34801561015757600080fd5b5061016061049d565b60405161016d91906121d5565b60405180910390f35b34801561018257600080fd5b5061019d6004803603810190610198919061222d565b61052f565b6040516101aa919061229b565b60405180910390f35b3480156101bf57600080fd5b506101da60048036038101906101d591906122e2565b6105b4565b005b3480156101e857600080fd5b506101f16106cc565b6040516101fe9190612331565b60405180910390f35b34801561021357600080fd5b5061022e6004803603810190610229919061234c565b6106d9565b005b34801561023c57600080fd5b50610257600480360381019061025291906122e2565b610739565b6040516102649190612331565b60405180910390f35b34801561027957600080fd5b50610294600480360381019061028f919061234c565b6107de565b005b3480156102a257600080fd5b506102bd60048036038101906102b8919061222d565b6107fe565b6040516102ca9190612331565b60405180910390f35b3480156102df57600080fd5b506102fa60048036038101906102f5919061222d565b61086f565b604051610307919061229b565b60405180910390f35b34801561031c57600080fd5b50610325610921565b6040516103329190612331565b60405180910390f35b34801561034757600080fd5b50610362600480360381019061035d919061239f565b610926565b60405161036f9190612331565b60405180910390f35b34801561038457600080fd5b5061038d6109de565b60405161039a91906121d5565b60405180910390f35b3480156103af57600080fd5b506103ca60048036038101906103c591906123f8565b610a70565b005b3480156103d857600080fd5b506103f360048036038101906103ee919061256d565b610a86565b005b34801561040157600080fd5b5061041c6004803603810190610417919061222d565b610ae8565b60405161042991906121d5565b60405180910390f35b61044c60048036038101906104479190612691565b610afa565b005b34801561045a57600080fd5b50610475600480360381019061047091906126da565b610b1e565b6040516104829190612121565b60405180910390f35b600061049682610bb2565b9050919050565b6060600080546104ac90612749565b80601f01602080910402602001604051908101604052809291908181526020018280546104d890612749565b80156105255780601f106104fa57610100808354040283529160200191610525565b820191906000526020600020905b81548152906001019060200180831161050857829003601f168201915b5050505050905090565b600061053a82610c2c565b610579576040517f08c379a0000000000000000000000000000000000000000000000000000000008152600401610570906127ed565b60405180910390fd5b6004600083815260200190815260200160002060009054906101000a900473ffffffffffffffffffffffffffffffffffffffff169050919050565b60006105bf8261086f565b90508073ffffffffffffffffffffffffffffffffffffffff168373ffffffffffffffffffffffffffffffffffffffff161415610630576040517f08c379a00000000000000000000000000000000000000000000000000000000081526004016106279061287f565b60405180910390fd5b8073ffffffffffffffffffffffffffffffffffffffff1661064f610c98565b73ffffffffffffffffffffffffffffffffffffffff16148061067e575061067d81610678610c98565b610b1e565b5b6106bd576040517f08c379a00000000000000000000000000000000000000000000000000000000081526004016106b490612911565b60405180910390fd5b6106c78383610ca0565b505050565b6000600880549050905090565b6106ea6106e4610c98565b82610d59565b610729576040517f08c379a0000000000000000000000000000000000000000000000000000000008152600401610720906129a3565b60405180910390fd5b610734838383610e37565b505050565b600061074483610926565b8210610785576040517f08c379a000000000000000000000000000000000000000000000000000000000815260040161077c90612a35565b60405180910390fd5b600660008473ffffffffffffffffffffffffffffffffffffffff1673ffffffffffffffffffffffffffffffffffffffff168152602001908152602001600020600083815260200190815260200160002054905092915050565b6107f983838360405180602001604052806000815250610a86565b505050565b60006108086106cc565b8210610849576040517f08c379a000000000000000000000000000000000000000000000000000000000815260040161084090612ac7565b60405180910390fd5b6008828154811061085d5761085c612ae7565b5b90600052602060002001549050919050565b6000806002600084815260200190815260200160002060009054906101000a900473ffffffffffffffffffffffffffffffffffffffff169050600073ffffffffffffffffffffffffffffffffffffffff168173ffffffffffffffffffffffffffffffffffffffff161415610918576040517f08c379a000000000000000000000000000000000000000000000000000000000815260040161090f90612b88565b60405180910390fd5b80915050919050565b600081565b60008073ffffffffffffffffffffffffffffffffffffffff168273ffffffffffffffffffffffffffffffffffffffff161415610997576040517f08c379a000000000000000000000000000000000000000000000000000000000815260040161098e90612c1a565b60405180910390fd5b600360008373ffffffffffffffffffffffffffffffffffffffff1673ffffffffffffffffffffffffffffffffffffffff168152602001908152602001600020549050919050565b6060600180546109ed90612749565b80601f0160208091040260200160405190810160405280929190818152602001828054610a1990612749565b8015610a665780601f10610a3b57610100808354040283529160200191610a66565b820191906000526020600020905b815481529060010190602001808311610a4957829003601f168201915b5050505050905090565b610a82610a7b610c98565b838361109e565b5050565b610a97610a91610c98565b83610d59565b610ad6576040517f08c379a0000000000000000000000000000000000000000000000000000000008152600401610acd906129a3565b60405180910390fd5b610ae28484848461120b565b50505050565b6060610af382611267565b9050919050565b6000610b046106cc565b9050610b1033826113b9565b610b1a81836113d7565b5050565b6000600560008473ffffffffffffffffffffffffffffffffffffffff1673ffffffffffffffffffffffffffffffffffffffff16815260200190815260200160002060008373ffffffffffffffffffffffffffffffffffffffff1673ffffffffffffffffffffffffffffffffffffffff16815260200190815260200160002060009054906101000a900460ff16905092915050565b60007f780e9d63000000000000000000000000000000000000000000000000000000007bffffffffffffffffffffffffffffffffffffffffffffffffffffffff1916827bffffffffffffffffffffffffffffffffffffffffffffffffffffffff19161480610c255750610c248261144b565b5b9050919050565b60008073ffffffffffffffffffffffffffffffffffffffff166002600084815260200190815260200160002060009054906101000a900473ffffffffffffffffffffffffffffffffffffffff1673ffffffffffffffffffffffffffffffffffffffff1614159050919050565b600033905090565b816004600083815260200190815260200160002060006101000a81548173ffffffffffffffffffffffffffffffffffffffff021916908373ffffffffffffffffffffffffffffffffffffffff160217905550808273ffffffffffffffffffffffffffffffffffffffff16610d138361086f565b73ffffffffffffffffffffffffffffffffffffffff167f8c5be1e5ebec7d5bd14f71427d1e84f3dd0314c0f7b2291e5b200ac8c7c3b92560405160405180910390a45050565b6000610d6482610c2c565b610da3576040517f08c379a0000000000000000000000000000000000000000000000000000000008152600401610d9a90612cac565b60405180910390fd5b6000610dae8361086f565b90508073ffffffffffffffffffffffffffffffffffffffff168473ffffffffffffffffffffffffffffffffffffffff161480610e1d57508373ffffffffffffffffffffffffffffffffffffffff16610e058461052f565b73ffffffffffffffffffffffffffffffffffffffff16145b80610e2e5750610e2d8185610b1e565b5b91505092915050565b8273ffffffffffffffffffffffffffffffffffffffff16610e578261086f565b73ffffffffffffffffffffffffffffffffffffffff1614610ead576040517f08c379a0000000000000000000000000000000000000000000000000000000008152600401610ea490612d3e565b60405180910390fd5b600073ffffffffffffffffffffffffffffffffffffffff168273ffffffffffffffffffffffffffffffffffffffff161415610f1d576040517f08c379a0000000000000000000000000000000000000000000000000000000008152600401610f1490612dd0565b60405180910390fd5b610f2883838361152d565b610f33600082610ca0565b6001600360008573ffffffffffffffffffffffffffffffffffffffff1673ffffffffffffffffffffffffffffffffffffffff1681526020019081526020016000206000828254610f839190612e1f565b925050819055506001600360008473ffffffffffffffffffffffffffffffffffffffff1673ffffffffffffffffffffffffffffffffffffffff1681526020019081526020016000206000828254610fda9190612e53565b92505081905550816002600083815260200190815260200160002060006101000a81548173ffffffffffffffffffffffffffffffffffffffff021916908373ffffffffffffffffffffffffffffffffffffffff160217905550808273ffffffffffffffffffffffffffffffffffffffff168473ffffffffffffffffffffffffffffffffffffffff167fddf252ad1be2c89b69c2b068fc378daa952ba7f163c4a11628f55a4df523b3ef60405160405180910390a461109983838361153d565b505050565b8173ffffffffffffffffffffffffffffffffffffffff168373ffffffffffffffffffffffffffffffffffffffff16141561110d576040517f08c379a000000000000000000000000000000000000000000000000000000000815260040161110490612ef5565b60405180910390fd5b80600560008573ffffffffffffffffffffffffffffffffffffffff1673ffffffffffffffffffffffffffffffffffffffff16815260200190815260200160002060008473ffffffffffffffffffffffffffffffffffffffff1673ffffffffffffffffffffffffffffffffffffffff16815260200190815260200160002060006101000a81548160ff0219169083151502179055508173ffffffffffffffffffffffffffffffffffffffff168373ffffffffffffffffffffffffffffffffffffffff167f17307eab39ab6107e8899845ad3d59bd9653f200f220920489ca2b5937696c31836040516111fe9190612121565b60405180910390a3505050565b611216848484610e37565b61122284848484611542565b611261576040517f08c379a000000000000000000000000000000000000000000000000000000000815260040161125890612f87565b60405180910390fd5b50505050565b606061127282610c2c565b6112b1576040517f08c379a00000000000000000000000000000000000000000000000000000000081526004016112a890613019565b60405180910390fd5b6000600a600084815260200190815260200160002080546112d190612749565b80601f01602080910402602001604051908101604052809291908181526020018280546112fd90612749565b801561134a5780601f1061131f5761010080835404028352916020019161134a565b820191906000526020600020905b81548152906001019060200180831161132d57829003601f168201915b50505050509050600061135b6116ca565b90506000815114156113715781925050506113b4565b6000825111156113a657808260405160200161138e929190613075565b604051602081830303815290604052925050506113b4565b6113af846116e1565b925050505b919050565b6113d3828260405180602001604052806000815250611788565b5050565b6113e082610c2c565b61141f576040517f08c379a00000000000000000000000000000000000000000000000000000000081526004016114169061310b565b60405180910390fd5b80600a60008481526020019081526020016000209080519060200190611446929190611fca565b505050565b60007f80ac58cd000000000000000000000000000000000000000000000000000000007bffffffffffffffffffffffffffffffffffffffffffffffffffffffff1916827bffffffffffffffffffffffffffffffffffffffffffffffffffffffff1916148061151657507f5b5e139f000000000000000000000000000000000000000000000000000000007bffffffffffffffffffffffffffffffffffffffffffffffffffffffff1916827bffffffffffffffffffffffffffffffffffffffffffffffffffffffff1916145b806115265750611525826117e3565b5b9050919050565b61153883838361184d565b505050565b505050565b60006115638473ffffffffffffffffffffffffffffffffffffffff16611961565b156116bd578373ffffffffffffffffffffffffffffffffffffffff1663150b7a0261158c610c98565b8786866040518563ffffffff1660e01b81526004016115ae9493929190613180565b6020604051808303816000875af19250505080156115ea57506040513d601f19601f820116820180604052508101906115e791906131e1565b60015b61166d573d806000811461161a576040519150601f19603f3d011682016040523d82523d6000602084013e61161f565b606091505b50600081511415611665576040517f08c379a000000000000000000000000000000000000000000000000000000000815260040161165c90612f87565b60405180910390fd5b805181602001fd5b63150b7a0260e01b7bffffffffffffffffffffffffffffffffffffffffffffffffffffffff1916817bffffffffffffffffffffffffffffffffffffffffffffffffffffffff1916149150506116c2565b600190505b949350505050565b606060405180602001604052806000815250905090565b60606116ec82610c2c565b61172b576040517f08c379a000000000000000000000000000000000000000000000000000000000815260040161172290613280565b60405180910390fd5b60006117356116ca565b905060008151116117555760405180602001604052806000815250611780565b8061175f84611984565b604051602001611770929190613075565b6040516020818303038152906040525b915050919050565b6117928383611ae5565b61179f6000848484611542565b6117de576040517f08c379a00000000000000000000000000000000000000000000000000000000081526004016117d590612f87565b60405180910390fd5b505050565b60007f01ffc9a7000000000000000000000000000000000000000000000000000000007bffffffffffffffffffffffffffffffffffffffffffffffffffffffff1916827bffffffffffffffffffffffffffffffffffffffffffffffffffffffff1916149050919050565b611858838383611cbf565b600073ffffffffffffffffffffffffffffffffffffffff168373ffffffffffffffffffffffffffffffffffffffff16141561189b5761189681611cc4565b6118da565b8173ffffffffffffffffffffffffffffffffffffffff168373ffffffffffffffffffffffffffffffffffffffff16146118d9576118d88382611d0d565b5b5b600073ffffffffffffffffffffffffffffffffffffffff168273ffffffffffffffffffffffffffffffffffffffff16141561191d5761191881611e7a565b61195c565b8273ffffffffffffffffffffffffffffffffffffffff168273ffffffffffffffffffffffffffffffffffffffff161461195b5761195a8282611f4b565b5b5b505050565b6000808273ffffffffffffffffffffffffffffffffffffffff163b119050919050565b606060008214156119cc576040518060400160405280600181526020017f30000000000000000000000000000000000000000000000000000000000000008152509050611ae0565b600082905060005b600082146119fe5780806119e7906132a0565b915050600a826119f79190613318565b91506119d4565b60008167ffffffffffffffff811115611a1a57611a19612442565b5b6040519080825280601f01601f191660200182016040528015611a4c5781602001600182028036833780820191505090505b5090505b60008514611ad957600182611a659190612e1f565b9150600a85611a749190613349565b6030611a809190612e53565b60f81b818381518110611a9657611a95612ae7565b5b60200101907effffffffffffffffffffffffffffffffffffffffffffffffffffffffffffff1916908160001a905350600a85611ad29190613318565b9450611a50565b8093505050505b919050565b600073ffffffffffffffffffffffffffffffffffffffff168273ffffffffffffffffffffffffffffffffffffffff161415611b55576040517f08c379a0000000000000000000000000000000000000000000000000000000008152600401611b4c906133c6565b60405180910390fd5b611b5e81610c2c565b15611b9e576040517f08c379a0000000000000000000000000000000000000000000000000000000008152600401611b9590613432565b60405180910390fd5b611baa6000838361152d565b6001600360008473ffffffffffffffffffffffffffffffffffffffff1673ffffffffffffffffffffffffffffffffffffffff1681526020019081526020016000206000828254611bfa9190612e53565b92505081905550816002600083815260200190815260200160002060006101000a81548173ffffffffffffffffffffffffffffffffffffffff021916908373ffffffffffffffffffffffffffffffffffffffff160217905550808273ffffffffffffffffffffffffffffffffffffffff16600073ffffffffffffffffffffffffffffffffffffffff167fddf252ad1be2c89b69c2b068fc378daa952ba7f163c4a11628f55a4df523b3ef60405160405180910390a4611cbb6000838361153d565b5050565b505050565b6008805490506009600083815260200190815260200160002081905550600881908060018154018082558091505060019003906000526020600020016000909190919091505550565b60006001611d1a84610926565b611d249190612e1f565b9050600060076000848152602001908152602001600020549050818114611e09576000600660008673ffffffffffffffffffffffffffffffffffffffff1673ffffffffffffffffffffffffffffffffffffffff168152602001908152602001600020600084815260200190815260200160002054905080600660008773ffffffffffffffffffffffffffffffffffffffff1673ffffffffffffffffffffffffffffffffffffffff168152602001908152602001600020600084815260200190815260200160002081905550816007600083815260200190815260200160002081905550505b6007600084815260200190815260200160002060009055600660008573ffffffffffffffffffffffffffffffffffffffff1673ffffffffffffffffffffffffffffffffffffffff16815260200190815260200160002060008381526020019081526020016000206000905550505050565b60006001600880549050611e8e9190612e1f565b9050600060096000848152602001908152602001600020549050600060088381548110611ebe57611ebd612ae7565b5b906000526020600020015490508060088381548110611ee057611edf612ae7565b5b906000526020600020018190555081600960008381526020019081526020016000208190555060096000858152602001908152602001600020600090556008805480611f2f57611f2e613452565b5b6001900381819060005260206000200160009055905550505050565b6000611f5683610926565b905081600660008573ffffffffffffffffffffffffffffffffffffffff1673ffffffffffffffffffffffffffffffffffffffff168152602001908152602001600020600083815260200190815260200160002081905550806007600084815260200190815260200160002081905550505050565b828054611fd690612749565b90600052602060002090601f016020900481019282611ff8576000855561203f565b82601f1061201157805160ff191683800117855561203f565b8280016001018555821561203f579182015b8281111561203e578251825591602001919060010190612023565b5b50905061204c9190612050565b5090565b5b80821115612069576000816000905550600101612051565b5090565b6000604051905090565b600080fd5b600080fd5b60007fffffffff0000000000000000000000000000000000000000000000000000000082169050919050565b6120b681612081565b81146120c157600080fd5b50565b6000813590506120d3816120ad565b92915050565b6000602082840312156120ef576120ee612077565b5b60006120fd848285016120c4565b91505092915050565b60008115159050919050565b61211b81612106565b82525050565b60006020820190506121366000830184612112565b92915050565b600081519050919050565b600082825260208201905092915050565b60005b8381101561217657808201518184015260208101905061215b565b83811115612185576000848401525b50505050565b6000601f19601f8301169050919050565b60006121a78261213c565b6121b18185612147565b93506121c1818560208601612158565b6121ca8161218b565b840191505092915050565b600060208201905081810360008301526121ef818461219c565b905092915050565b6000819050919050565b61220a816121f7565b811461221557600080fd5b50565b60008135905061222781612201565b92915050565b60006020828403121561224357612242612077565b5b600061225184828501612218565b91505092915050565b600073ffffffffffffffffffffffffffffffffffffffff82169050919050565b60006122858261225a565b9050919050565b6122958161227a565b82525050565b60006020820190506122b0600083018461228c565b92915050565b6122bf8161227a565b81146122ca57600080fd5b50565b6000813590506122dc816122b6565b92915050565b600080604083850312156122f9576122f8612077565b5b6000612307858286016122cd565b925050602061231885828601612218565b9150509250929050565b61232b816121f7565b82525050565b60006020820190506123466000830184612322565b92915050565b60008060006060848603121561236557612364612077565b5b6000612373868287016122cd565b9350506020612384868287016122cd565b925050604061239586828701612218565b9150509250925092565b6000602082840312156123b5576123b4612077565b5b60006123c3848285016122cd565b91505092915050565b6123d581612106565b81146123e057600080fd5b50565b6000813590506123f2816123cc565b92915050565b6000806040838503121561240f5761240e612077565b5b600061241d858286016122cd565b925050602061242e858286016123e3565b9150509250929050565b600080fd5b600080fd5b7f4e487b7100000000000000000000000000000000000000000000000000000000600052604160045260246000fd5b61247a8261218b565b810181811067ffffffffffffffff8211171561249957612498612442565b5b80604052505050565b60006124ac61206d565b90506124b88282612471565b919050565b600067ffffffffffffffff8211156124d8576124d7612442565b5b6124e18261218b565b9050602081019050919050565b82818337600083830152505050565b600061251061250b846124bd565b6124a2565b90508281526020810184848401111561252c5761252b61243d565b5b6125378482856124ee565b509392505050565b600082601f83011261255457612553612438565b5b81356125648482602086016124fd565b91505092915050565b6000806000806080858703121561258757612586612077565b5b6000612595878288016122cd565b94505060206125a6878288016122cd565b93505060406125b787828801612218565b925050606085013567ffffffffffffffff8111156125d8576125d761207c565b5b6125e48782880161253f565b91505092959194509250565b600067ffffffffffffffff82111561260b5761260a612442565b5b6126148261218b565b9050602081019050919050565b600061263461262f846125f0565b6124a2565b9050828152602081018484840111156126505761264f61243d565b5b61265b8482856124ee565b509392505050565b600082601f83011261267857612677612438565b5b8135612688848260208601612621565b91505092915050565b6000602082840312156126a7576126a6612077565b5b600082013567ffffffffffffffff8111156126c5576126c461207c565b5b6126d184828501612663565b91505092915050565b600080604083850312156126f1576126f0612077565b5b60006126ff858286016122cd565b9250506020612710858286016122cd565b9150509250929050565b7f4e487b7100000000000000000000000000000000000000000000000000000000600052602260045260246000fd5b6000600282049050600182168061276157607f821691505b602082108114156127755761277461271a565b5b50919050565b7f4552433732313a20617070726f76656420717565727920666f72206e6f6e657860008201527f697374656e7420746f6b656e0000000000000000000000000000000000000000602082015250565b60006127d7602c83612147565b91506127e28261277b565b604082019050919050565b60006020820190508181036000830152612806816127ca565b9050919050565b7f4552433732313a20617070726f76616c20746f2063757272656e74206f776e6560008201527f7200000000000000000000000000000000000000000000000000000000000000602082015250565b6000612869602183612147565b91506128748261280d565b604082019050919050565b600060208201905081810360008301526128988161285c565b9050919050565b7f4552433732313a20617070726f76652063616c6c6572206973206e6f74206f7760008201527f6e6572206e6f7220617070726f76656420666f7220616c6c0000000000000000602082015250565b60006128fb603883612147565b91506129068261289f565b604082019050919050565b6000602082019050818103600083015261292a816128ee565b9050919050565b7f4552433732313a207472616e736665722063616c6c6572206973206e6f74206f60008201527f776e6572206e6f7220617070726f766564000000000000000000000000000000602082015250565b600061298d603183612147565b915061299882612931565b604082019050919050565b600060208201905081810360008301526129bc81612980565b9050919050565b7f455243373231456e756d657261626c653a206f776e657220696e646578206f7560008201527f74206f6620626f756e6473000000000000000000000000000000000000000000602082015250565b6000612a1f602b83612147565b9150612a2a826129c3565b604082019050919050565b60006020820190508181036000830152612a4e81612a12565b9050919050565b7f455243373231456e756d657261626c653a20676c6f62616c20696e646578206f60008201527f7574206f6620626f756e64730000000000000000000000000000000000000000602082015250565b6000612ab1602c83612147565b9150612abc82612a55565b604082019050919050565b60006020820190508181036000830152612ae081612aa4565b9050919050565b7f4e487b7100000000000000000000000000000000000000000000000000000000600052603260045260246000fd5b7f4552433732313a206f776e657220717565727920666f72206e6f6e657869737460008201527f656e7420746f6b656e0000000000000000000000000000000000000000000000602082015250565b6000612b72602983612147565b9150612b7d82612b16565b604082019050919050565b60006020820190508181036000830152612ba181612b65565b9050919050565b7f4552433732313a2062616c616e636520717565727920666f7220746865207a6560008201527f726f206164647265737300000000000000000000000000000000000000000000602082015250565b6000612c04602a83612147565b9150612c0f82612ba8565b604082019050919050565b60006020820190508181036000830152612c3381612bf7565b9050919050565b7f4552433732313a206f70657261746f7220717565727920666f72206e6f6e657860008201527f697374656e7420746f6b656e0000000000000000000000000000000000000000602082015250565b6000612c96602c83612147565b9150612ca182612c3a565b604082019050919050565b60006020820190508181036000830152612cc581612c89565b9050919050565b7f4552433732313a207472616e736665722066726f6d20696e636f72726563742060008201527f6f776e6572000000000000000000000000000000000000000000000000000000602082015250565b6000612d28602583612147565b9150612d3382612ccc565b604082019050919050565b60006020820190508181036000830152612d5781612d1b565b9050919050565b7f4552433732313a207472616e7366657220746f20746865207a65726f2061646460008201527f7265737300000000000000000000000000000000000000000000000000000000602082015250565b6000612dba602483612147565b9150612dc582612d5e565b604082019050919050565b60006020820190508181036000830152612de981612dad565b9050919050565b7f4e487b7100000000000000000000000000000000000000000000000000000000600052601160045260246000fd5b6000612e2a826121f7565b9150612e35836121f7565b925082821015612e4857612e47612df0565b5b828203905092915050565b6000612e5e826121f7565b9150612e69836121f7565b9250827fffffffffffffffffffffffffffffffffffffffffffffffffffffffffffffffff03821115612e9e57612e9d612df0565b5b828201905092915050565b7f4552433732313a20617070726f766520746f2063616c6c657200000000000000600082015250565b6000612edf601983612147565b9150612eea82612ea9565b602082019050919050565b60006020820190508181036000830152612f0e81612ed2565b9050919050565b7f4552433732313a207472616e7366657220746f206e6f6e20455243373231526560008201527f63656976657220696d706c656d656e7465720000000000000000000000000000602082015250565b6000612f71603283612147565b9150612f7c82612f15565b604082019050919050565b60006020820190508181036000830152612fa081612f64565b9050919050565b7f45524337323155524953746f726167653a2055524920717565727920666f722060008201527f6e6f6e6578697374656e7420746f6b656e000000000000000000000000000000602082015250565b6000613003603183612147565b915061300e82612fa7565b604082019050919050565b6000602082019050818103600083015261303281612ff6565b9050919050565b600081905092915050565b600061304f8261213c565b6130598185613039565b9350613069818560208601612158565b80840191505092915050565b60006130818285613044565b915061308d8284613044565b91508190509392505050565b7f45524337323155524953746f726167653a2055524920736574206f66206e6f6e60008201527f6578697374656e7420746f6b656e000000000000000000000000000000000000602082015250565b60006130f5602e83612147565b915061310082613099565b604082019050919050565b60006020820190508181036000830152613124816130e8565b9050919050565b600081519050919050565b600082825260208201905092915050565b60006131528261312b565b61315c8185613136565b935061316c818560208601612158565b6131758161218b565b840191505092915050565b6000608082019050613195600083018761228c565b6131a2602083018661228c565b6131af6040830185612322565b81810360608301526131c18184613147565b905095945050505050565b6000815190506131db816120ad565b92915050565b6000602082840312156131f7576131f6612077565b5b6000613205848285016131cc565b91505092915050565b7f4552433732314d657461646174613a2055524920717565727920666f72206e6f60008201527f6e6578697374656e7420746f6b656e0000000000000000000000000000000000602082015250565b600061326a602f83612147565b91506132758261320e565b604082019050919050565b600060208201905081810360008301526132998161325d565b9050919050565b60006132ab826121f7565b91507fffffffffffffffffffffffffffffffffffffffffffffffffffffffffffffffff8214156132de576132dd612df0565b5b600182019050919050565b7f4e487b7100000000000000000000000000000000000000000000000000000000600052601260045260246000fd5b6000613323826121f7565b915061332e836121f7565b92508261333e5761333d6132e9565b5b828204905092915050565b6000613354826121f7565b915061335f836121f7565b92508261336f5761336e6132e9565b5b828206905092915050565b7f4552433732313a206d696e7420746f20746865207a65726f2061646472657373600082015250565b60006133b0602083612147565b91506133bb8261337a565b602082019050919050565b600060208201905081810360008301526133df816133a3565b9050919050565b7f4552433732313a20746f6b656e20616c7265616479206d696e74656400000000600082015250565b600061341c601c83612147565b9150613427826133e6565b602082019050919050565b6000602082019050818103600083015261344b8161340f565b9050919050565b7f4e487b7100000000000000000000000000000000000000000000000000000000600052603160045260246000fdfea2646970667358221220ddd5476849ee2cb554b5843bc3cafb096b6f6b5b6f9206bcbe34afbb28c0e44e64736f6c634300080b0033",
  "immutableReferences": {},
  "source": "// SPDX-License-Identifier: Unlicense\npragma solidity ^0.8.4;\nimport \"@openzeppelin/contracts/token/ERC721/extensions/ERC721Enumerable.sol\";\nimport \"@openzeppelin/contracts/token/ERC721/extensions/ERC721URIStorage.sol\";\nimport \"@openzeppelin/contracts/token/ERC721/ERC721.sol\";\nimport \"@openzeppelin/contracts/utils/math/SafeMath.sol\";\n\ncontract Minter is ERC721, ERC721Enumerable, ERC721URIStorage {\n    using SafeMath for uint256;\n    uint public constant mintPrice = 0;\n\n    function _beforeTokenTransfer(address from, address to, uint256 tokenId)\n        internal\n        override(ERC721, ERC721Enumerable)\n    {\n        super._beforeTokenTransfer(from, to, tokenId);\n    }\n\n    function _burn(uint256 tokenId) internal override(ERC721, ERC721URIStorage) {\n        super._burn(tokenId);\n    }\n    function tokenURI(uint256 tokenId)\n        public\n        view\n        override(ERC721, ERC721URIStorage)\n        returns (string memory)\n    {\n        return super.tokenURI(tokenId);\n    }\n    function supportsInterface(bytes4 interfaceId)\n        public\n        view\n        override(ERC721, ERC721Enumerable)\n        returns (bool)\n    {\n        return super.supportsInterface(interfaceId);\n    }\n    constructor() ERC721(\"YTMinter\", \"YTM\") {}\n    function mint(string memory _uri) public payable {\n        uint256 mintIndex = totalSupply();\n        _safeMint(msg.sender, mintIndex);\n        _setTokenURI(mintIndex, _uri);\n    }\n}",
  "sourcePath": "C:\\Users\\T-GAMER\\Documents\\repositories\\solidity\\nft-minter-eth\\Truffle\\contracts\\Minter.sol",
  "compiler": {
    "name": "solc",
    "version": "0.8.11+commit.d7f03943.Emscripten.clang"
  },
  "schemaVersion": "3.4.4",
  "updatedAt": "2022-04-19T01:19:35.286Z",
  "devdoc": {
    "kind": "dev",
    "methods": {
      "approve(address,uint256)": {
        "details": "See {IERC721-approve}."
      },
      "balanceOf(address)": {
        "details": "See {IERC721-balanceOf}."
      },
      "getApproved(uint256)": {
        "details": "See {IERC721-getApproved}."
      },
      "isApprovedForAll(address,address)": {
        "details": "See {IERC721-isApprovedForAll}."
      },
      "name()": {
        "details": "See {IERC721Metadata-name}."
      },
      "ownerOf(uint256)": {
        "details": "See {IERC721-ownerOf}."
      },
      "safeTransferFrom(address,address,uint256)": {
        "details": "See {IERC721-safeTransferFrom}."
      },
      "safeTransferFrom(address,address,uint256,bytes)": {
        "details": "See {IERC721-safeTransferFrom}."
      },
      "setApprovalForAll(address,bool)": {
        "details": "See {IERC721-setApprovalForAll}."
      },
      "symbol()": {
        "details": "See {IERC721Metadata-symbol}."
      },
      "tokenByIndex(uint256)": {
        "details": "See {IERC721Enumerable-tokenByIndex}."
      },
      "tokenOfOwnerByIndex(address,uint256)": {
        "details": "See {IERC721Enumerable-tokenOfOwnerByIndex}."
      },
      "totalSupply()": {
        "details": "See {IERC721Enumerable-totalSupply}."
      },
      "transferFrom(address,address,uint256)": {
        "details": "See {IERC721-transferFrom}."
      }
    },
    "version": 1
  },
  "userdoc": {
    "kind": "user",
    "methods": {},
    "version": 1
  }
}